{
  "abi": [
    {
      "constant": true,
      "inputs": [
        {
          "internalType": "uint256",
          "name": "_bitmap",
          "type": "uint256"
        },
        {
          "internalType": "uint256",
          "name": "_flip",
          "type": "uint256"
        }
      ],
      "name": "testBitmap",
      "outputs": [
        {
          "internalType": "bool",
          "name": "",
          "type": "bool"
        }
      ],
      "payable": false,
      "stateMutability": "pure",
      "type": "function"
    }
  ],
  "evm": {
    "bytecode": {
      "linkReferences": {},
      "object": "608060405234801561001057600080fd5b50610234806100206000396000f3fe608060405234801561001057600080fd5b506004361061002b5760003560e01c80632799fc2814610030575b600080fd5b61004a600480360361004591908101906100c7565b610060565b6040516100579190610178565b60405180910390f35b6000808214156100a5576040517f08c379a000000000000000000000000000000000000000000000000000000000815260040161009c90610193565b60405180910390fd5b8182841614905092915050565b6000813590506100c1816101da565b92915050565b600080604083850312156100da57600080fd5b60006100e8858286016100b2565b92505060206100f9858286016100b2565b9150509250929050565b61010c816101c4565b82525050565b600061011f602e836101b3565b91507f5369676e6572206d75737420626520747279696e6720746f20666c697020617460008301527f206c65617374206f6e65206269740000000000000000000000000000000000006020830152604082019050919050565b600060208201905061018d6000830184610103565b92915050565b600060208201905081810360008301526101ac81610112565b9050919050565b600082825260208201905092915050565b60008115159050919050565b6000819050919050565b6101e3816101d0565b81146101ee57600080fd5b5056fea365627a7a7231582061cac46d55f37557692c3997a08eb0f41158dc3dda98e49e765839092c0d90b86c6578706572696d656e74616cf564736f6c634300050b0040",
      "opcodes": "PUSH1 0x80 PUSH1 0x40 MSTORE CALLVALUE DUP1 ISZERO PUSH2 0x10 JUMPI PUSH1 0x0 DUP1 REVERT JUMPDEST POP PUSH2 0x234 DUP1 PUSH2 0x20 PUSH1 0x0 CODECOPY PUSH1 0x0 RETURN INVALID PUSH1 0x80 PUSH1 0x40 MSTORE CALLVALUE DUP1 ISZERO PUSH2 0x10 JUMPI PUSH1 0x0 DUP1 REVERT JUMPDEST POP PUSH1 0x4 CALLDATASIZE LT PUSH2 0x2B JUMPI PUSH1 0x0 CALLDATALOAD PUSH1 0xE0 SHR DUP1 PUSH4 0x2799FC28 EQ PUSH2 0x30 JUMPI JUMPDEST PUSH1 0x0 DUP1 REVERT JUMPDEST PUSH2 0x4A PUSH1 0x4 DUP1 CALLDATASIZE SUB PUSH2 0x45 SWAP2 SWAP1 DUP2 ADD SWAP1 PUSH2 0xC7 JUMP JUMPDEST PUSH2 0x60 JUMP JUMPDEST PUSH1 0x40 MLOAD PUSH2 0x57 SWAP2 SWAP1 PUSH2 0x178 JUMP JUMPDEST PUSH1 0x40 MLOAD DUP1 SWAP2 SUB SWAP1 RETURN JUMPDEST PUSH1 0x0 DUP1 DUP3 EQ ISZERO PUSH2 0xA5 JUMPI PUSH1 0x40 MLOAD PUSH32 0x8C379A000000000000000000000000000000000000000000000000000000000 DUP2 MSTORE PUSH1 0x4 ADD PUSH2 0x9C SWAP1 PUSH2 0x193 JUMP JUMPDEST PUSH1 0x40 MLOAD DUP1 SWAP2 SUB SWAP1 REVERT JUMPDEST DUP2 DUP3 DUP5 AND EQ SWAP1 POP SWAP3 SWAP2 POP POP JUMP JUMPDEST PUSH1 0x0 DUP2 CALLDATALOAD SWAP1 POP PUSH2 0xC1 DUP2 PUSH2 0x1DA JUMP JUMPDEST SWAP3 SWAP2 POP POP JUMP JUMPDEST PUSH1 0x0 DUP1 PUSH1 0x40 DUP4 DUP6 SUB SLT ISZERO PUSH2 0xDA JUMPI PUSH1 0x0 DUP1 REVERT JUMPDEST PUSH1 0x0 PUSH2 0xE8 DUP6 DUP3 DUP7 ADD PUSH2 0xB2 JUMP JUMPDEST SWAP3 POP POP PUSH1 0x20 PUSH2 0xF9 DUP6 DUP3 DUP7 ADD PUSH2 0xB2 JUMP JUMPDEST SWAP2 POP POP SWAP3 POP SWAP3 SWAP1 POP JUMP JUMPDEST PUSH2 0x10C DUP2 PUSH2 0x1C4 JUMP JUMPDEST DUP3 MSTORE POP POP JUMP JUMPDEST PUSH1 0x0 PUSH2 0x11F PUSH1 0x2E DUP4 PUSH2 0x1B3 JUMP JUMPDEST SWAP2 POP PUSH32 0x5369676E6572206D75737420626520747279696E6720746F20666C6970206174 PUSH1 0x0 DUP4 ADD MSTORE PUSH32 0x206C65617374206F6E6520626974000000000000000000000000000000000000 PUSH1 0x20 DUP4 ADD MSTORE PUSH1 0x40 DUP3 ADD SWAP1 POP SWAP2 SWAP1 POP JUMP JUMPDEST PUSH1 0x0 PUSH1 0x20 DUP3 ADD SWAP1 POP PUSH2 0x18D PUSH1 0x0 DUP4 ADD DUP5 PUSH2 0x103 JUMP JUMPDEST SWAP3 SWAP2 POP POP JUMP JUMPDEST PUSH1 0x0 PUSH1 0x20 DUP3 ADD SWAP1 POP DUP2 DUP2 SUB PUSH1 0x0 DUP4 ADD MSTORE PUSH2 0x1AC DUP2 PUSH2 0x112 JUMP JUMPDEST SWAP1 POP SWAP2 SWAP1 POP JUMP JUMPDEST PUSH1 0x0 DUP3 DUP3 MSTORE PUSH1 0x20 DUP3 ADD SWAP1 POP SWAP3 SWAP2 POP POP JUMP JUMPDEST PUSH1 0x0 DUP2 ISZERO ISZERO SWAP1 POP SWAP2 SWAP1 POP JUMP JUMPDEST PUSH1 0x0 DUP2 SWAP1 POP SWAP2 SWAP1 POP JUMP JUMPDEST PUSH2 0x1E3 DUP2 PUSH2 0x1D0 JUMP JUMPDEST DUP2 EQ PUSH2 0x1EE JUMPI PUSH1 0x0 DUP1 REVERT JUMPDEST POP JUMP INVALID LOG3 PUSH6 0x627A7A723158 KECCAK256 PUSH2 0xCAC4 PUSH14 0x55F37557692C3997A08EB0F41158 0xdc RETURNDATASIZE 0xda SWAP9 0xe4 SWAP15 PUSH23 0x5839092C0D90B86C6578706572696D656E74616CF56473 PUSH16 0x6C634300050B00400000000000000000 "
    }
  },
  "interface": [
    {
      "constant": true,
      "inputs": [
        {
          "internalType": "uint256",
          "name": "_bitmap",
          "type": "uint256"
        },
        {
          "internalType": "uint256",
          "name": "_flip",
          "type": "uint256"
        }
      ],
      "name": "testBitmap",
      "outputs": [
        {
          "internalType": "bool",
          "name": "",
          "type": "bool"
        }
      ],
      "payable": false,
      "stateMutability": "pure",
      "type": "function"
    }
  ]
}